:1015CE00E4F593F594F591F592F595F596F5B1F55B
:1015DE00B2F5B3F5B4F5C9F5CAF5CBF5CCF5E1F531
:0215EE00E222F7
:101026001215CE1215801215581202C412167F120E
:10103600165BA2C4B3E433FD7F651213341216F1B6
:10104600EF14601E14602F14603014603124047095
:10105600D8C2B27F647E00121500D2B27F647E00D1
:10106600800FC2B27FF47E01121500D2B27FF47EE9
:101076000112150080B3D2B280AFC2B280ABC2B249
:0210860080A741
:10150000EF1FAA0670011E4A6021E4FCFDC3ED94A2
:1015100009EC940050EAE4FBFA0BBB00010AEB640F
:0B152000554A70F50DBD00010C80E283
:01152B00229D
:10166F00EF1FAC0670011E4C600500000080F122D8
:0615F0004100FA00C101F8
:1015800075BA00E4F5AC75D7E875D6FF538EFB430A
:101590008E01438E1053AFFB43AF0853ACEF43AC07
:0715A0001053ACFED2AF2294
:0816DD00D2008FAD2000FD22B8
:10149E009000F1EBF0A3EAF0A3E9F09000F1E0FB8D
:1014AE00A3E0FAA3E0F912018460179000F1A3E41F
:1014BE0075F001120214A9F0FA120184FF1216DD62
:0314CE0080D922A0
:03008B000211F669
:1011F600C0E0C0F0C083C082C0D075D000C000C0BF
:1012060001C002C003C004C005C006C007E5AC307B
:10121600E01053ACFE9000FAE5ADF0D201E0FF120B
:101226000B2CE5AC30E10553ACFDC200D007D0066F
:10123600D005D004D003D002D001D000D0D0D082C7
:07124600D083D0F0D0E032AC
:0E167F0020C00A7F0A7E0012150012168D226E
:10165B002096099000FB7464F0C2C422E49000FB56
:04166B00F0D2C422D3
:0515F6004200F80000B6
:100E7D00EFC39430400CEFD39439500674D02FFF4C
:100E8D008022EFC39441400CEFD394465006EF24DB
:100E9D00C9FF8010EFC39461400AEFD394665004EC
:100EAD00EF24A9FFEF540FC454F0FFEDC39430406D
:100EBD000CEDD39439500674D02DFD801EEDC394E6
:100ECD00414008EDD394465002800CEDC39461402F
:100EDD000AEDD394665004ED24A9FDED540F4FFF98
:010EED0022E2
:0B0D9500900091EBF0A3EAF0A3E9F05E
:100DA000A312026D00000000900091E0FBA3E0FAA6
:100DB000A3E04A4B7005FFFEFDFC22900094120256
:100DC0006D00000000900091E0FBA3E475F00112BB
:100DD0000214A9F0FA1201846021900094E0FCA3AF
:100DE000E0FDA3E0FEA3E02401FFE43EFEE43DFDC0
:100DF000E43CFC90009412026180CA900094E0FCF4
:090E0000A3E0FDA3E0FEA3E0FF66
:010E090022C6
:0B119E009000B6EBF0A3EAF0A3E9F02C
:1011A9009000BCEBF0A3EAF0A3E9F09000B6E0FBF5
:1011B900A3E0FAA3E04A4B7004FBFAF9229000BAC3
:1011C90074FFF5F012021445F060169000BCE0FBC4
:1011D900A3E475F001120214A9F0FAED1201CA8014
:0C11E900DC9000B6E0FBA3E0FAA3E0F904
:0111F50022D7
:0B04BC00900098EBF0A3EAF0A3E9F039
:1004C7009000A0EBF0A3EAF0A3E9F090009BE0F91D
:1004D700A3E0FAA3E09000A3C9F0A3EAF0A3E9F030
:1004E700900098E0FBA3E0FAA3E04A4B600CA3E07E
:1004F700FBA3E0FAA3E04A4B70077B007A00790080
:10050700229000A3E0FBA3E0FAA3E0F9C003C00236
:10051700C0019000A0A3E0FAA3E0F9D3D082D08372
:10052700D0E0E99582EA958340339000A3A3E0FAEF
:10053700A3E0F990009EE0FEA3E0FFE92FF9EA3E71
:10054700FAC003C002C001A3A3E0FAA3E0F9D3D025
:1005570082D083D0E0E99582EA95834056E4900003
:10056700A6F0A3F090009EE0FEA3E0FF9000A6E0B7
:10057700FCA3E0FDC39FEC9E40030206179000A377
:10058700E0FBA3E0FAA3E0F98D828C8312019DFFC3
:100597009000A0E0FBA3E0FAA3E0F98D828C83EF43
:1005A7001201DC9000A7E004F070069000A6E004BA
:1005B700F080B190009EE0FFA3E09000A6CFF0A3EB
:1005C700EFF09000A6E0FEA3E0FFD39400EE9400C6
:1005D700403E9000A3E0FBA3E0FAA3E0F9EF24FF7D
:1005E700FFEE34FFFE8F82F58312019DFD9000A080
:1005F700E0FBA3E0FAA3E0F98F828E83ED1201DC22
:100607009000A7E024FFF09000A6E034FFF080B24E
:0B061700900098E0FBA3E0FAA3E0F9DC
:0106220022B5
:0B0D0B009000BFEBF0A3EAF0A3E9F0BA
:100D16009000C5EBF0A3EAF0A3E9F09000BFE0FB7A
:100D2600A3E0FAA3E04A4B600CA3E0FBA3E0FAA31E
:100D3600E04A4B70077B007A007900229000C2E0FF
:100D4600FBA3E0FAA3E0F912018460289000C2A395
:100D5600E475F001120214A9F0FA120184FF900062
:100D6600BFE0FBA3E475F001120214A9F0FAEF123A
:100D760001CA80C89000BFE0FBA3E0FAA3E0F9E453
:0E0D86001201CA9000C5E0FBA3E0FAA3E0F959
:010D9400223C
:100E0A009000D6EBF0A3EAF0A3E9F09000D6E0FB5D
:100E1A00A3E0FAA3E0F9120184FF60299000D9E067
:100E2A00FBA3E0FAA3E0F91201846019B507169052
:100E3A0000D7E475F0011201FE9000DAE475F001C2
:100E4A001201FE80C69000D9E0FBA3E0FAA3E0F904
:100E5A00120184FF3395E0FE9000D6E0FBA3E0FA8E
:100E6A00A3E0F9120184FD3395E0FCC3ED9FFFEC8A
:030E7A009EFE22B7
:101088009000ED1202619000EDE0FCA3E0FDA3E00A
:10109800FEA3E0FF781812023BEF1201CA9000EDA0
:1010A800E0FCA3E0FDA3E0FEA3E0FF781012023B02
:1010B800900001EF1201DC9000EDE0FCA3E0FDA33D
:1010C800E0FEA3E0FF780812023B900002EF120155
:1010D800DC9000EDA3A3A3E0FF900003EF0201DC86
:0B08DB009000C8EBF0A3EAF0A3E9F0E6
:1008E600A312026D00000000120184FFE4FCFDFE6D
:1008F6009000CB1202619000CBE0FCA3E0FDA3E0E8
:10090600FEA3E0FF780812024E9000CB120261901F
:1009160000CBE0F8A3E0F9A3E0FAA3E0FBC000C037
:1009260001C002C0039000C8E0FBA3E0FAA3E0F90F
:1009360090000112019DFFD003D002D001D000EB40
:100946004FFFEAFEE9FDE8FC9000CB120261900041
:10095600CBE0FCA3E0FDA3E0FEA3E0FF78081202D3
:100966004E9000CB1202619000CBE0F8A3E0F9A311
:10097600E0FAA3E0FBC000C001C002C0039000C8BB
:10098600E0FBA3E0FAA3E0F990000212019DFFD07C
:1009960003D002D001D000EB4FFFEAFEE9FDE8FCF0
:1009A6009000CB1202619000CBE0FCA3E0FDA3E037
:1009B600FEA3E0FF780812024E9000CB120261906F
:1009C60000CBE0F8A3E0F9A3E0FAA3E0FBC000C087
:1009D60001C002C0039000C8E0FBA3E0FAA3E0F95F
:1009E60090000312019DFFD003D002D001D000EB8E
:1009F6004FFFEAFEE9FDE8FC9000CB120261900091
:0C0A0600CBE0FCA3E0FDA3E0FEA3E0FFBA
:010A120022C1
:0D10E8009000DDEBF0A3EAF0A3E9F0AD0706
:1010F500E4FFFE900002E0640170020F2212152C3D
:10110500E4FD12152C9000E0E0FD12152C9000E195
:10111500E0FD12152C9000DDE0FBA3E0FAA3E0F959
:10112500A3E0FDA3E0900096CDF0A3EDF0120EF73D
:0D113500AB07AA067D037F07120F5A7F014A
:01114200228A
:07133400900094EDF0AC07FE
:10133B00E4FFFE900002E0640170020F22AD041284
:10134B00152C7D0112152CE4FD12152C7D011215A7
:10135B002C900094E07003FD80027D0112152CABE4
:0C136B0007AA067D037F07120F5A7F01BE
:011377002253
:020BD800AD0767
:100BDA00E4FFFE900002E0640170020F2212152C5D
:100BEA007D0212152CE4FD12152C7D0412152CC061
:100BFA0006C007900087E0FCA3E0FDA3E0FEA3E0A7
:100C0A00FF781812023BAD07D007D00612152CC088
:100C1A0006C007900087E0FCA3E0FDA3E0FEA3E086
:100C2A00FF781012023BAD07D007D00612152CC070
:100C3A0006C007900087E0FCA3E0FDA3E0FEA3E066
:100C4A00FF780812023BAD07D007D00612152CC058
:100C5A0006C007900087E0FCA3A3A3E0FFE4AD076A
:100C6A00D007D00612152CAB07AA067D037F071200
:040C7A000F5A7F018D
:010C7E002253
:0D1143009000E3EBF0A3EAF0A3E9F0AD07A4
:10115000E4FFFE900002E0640170020F2212152CE1
:101160007D0312152C9000E6E0FD12152C9000E78F
:10117000E0FD12152C9000E3E0FBA3E0FAA3E0F9F8
:10118000A3E0FDA3E0900096CDF0A3EDF0120EF7E2
:0D119000AB07AA067D037F07120F5A7F01EF
:01119D00222F
:0713B700900086EDF0AC0789
:1013BE00E4FFFE900002E0640170020F22AD041201
:1013CE00152C7D0412152CE4FD12152C7D01121521
:1013DE002C900086E0FD12152CAB07AA067D037F2C
:0613EE0007120F5A7F01F7
:0113F40022D6
:02062300AD0721
:10062500E49000D4F0A3F0900002E0640170037F31
:1006350001229000D4E0FEA3E0FF12152C9000D417
:10064500EEF0A3EFF07D0512152C9000D4EEF0A38B
:10065500EFF0E4FD12152C9000D4EEF0A3EFF0902E
:1006650000D0E0FCA3E0FDA3E0FEA374FFFFE47B64
:10067500FFFAF9F8C312022A70209000D4E0FEA315
:10068500E0FF7D0112152C9000D4EEF0A3EFF09061
:1006950000D0A3A3A3E0FD0207659000D0E0FCA372
:1006A500E0FDA3A374FFFFFEE47BFF7AFFF9F8C327
:1006B50012022A9000D47009E0FEA3E0FF7D0280BB
:1006C50057E0FEA3E0FF7D0412152C9000D4EEF058
:1006D500A3EFF0C006C0079000D0E0FCA3E0FDA3A7
:1006E500E0FEA3E0FF781812023BAD07D007D00665
:1006F50012152C9000D4EEF0A3EFF0C006C00790C1
:1007050000D0E0FCA3E0FDA3E0FEA3E0FF7810121B
:10071500023BAD07D007D00612152C9000D4EEF0A1
:10072500A3EFF0C006C0079000D0E0FCA3E0FDA356
:10073500E0FEA3E0FF780812023BAD07D007D00624
:1007450012152C9000D4EEF0A3EFF0C006C0079070
:1007550000D0E0FCA3A3A3E0FFE4AD07D007D006DB
:1007650012152C9000D4EEF0A3EFF09000D4E0FA2F
:0C077500A3E0FB7D037F07120F5A7F01F9
:010781002255
:0D169B00900094ECF0A3EDF0120184FF220A
:0D16A8009000F4ECF0A3EDF0120184FF229D
:0B16B5009000F6ECF0A3EDF00208DB63
:100B2C00900078EFF0900071A3E0FAA3E0AE02FF22
:100B3C00900074A3E0FAA3E0C39FFFEA9EFEEF646B
:100B4C00014E7003020BD7900074E0FBA3A3E0F9F5
:100B5C00C003C002C001900071A3E0FAA3E0F9D376
:100B6C00D082D083D0E0E99582EA9583402390002F
:100B7C0074A3E0FAA3E0AE02FF900071A3E0FAA325
:100B8C00E09FFFEA9EFEC3EF9417EE6480948050C2
:100B9C003A900071A3E0FAA3E0C390003A9582EA80
:100BAC009583400E9000717401F0A37400F0A3744F
:100BBC0023F0900078E0FF900071E0FBA3E475F067
:0C0BCC0001120214A9F0FAEF1201CA2273
:101378009000E8EBF0A3EAF0A3E9F0A3ECF0A3ED0A
:01138800F074
:10138900E4FDFCD39000ECE09D9000EBE09C401D57
:101399009000E8E0FBA3E0FAA3E0F98D828C8312C8
:0D13A900019DFF120B2C0DBD00010C80D624
:0113B6002214
:1002C400E4900079F0A3F0A3F0A3F0C39000F9E068
:1002D400941F9000F8E09400502A121469D3EF940C
:1002E4000074809480401D120FC39000F8E475F0F0
:1002F40001120214FC740325F0F58274003CF583AA
:10030400EFF080C7C39000F9E094079000F8E09400
:100314000050030204BB900079E0FEA3E0FFC39009
:1003240000F9E09FFD9000F8E09EFCC3ED9407EC1B
:100334009400500302046E74032FF58274003EF59A
:1003440083E06455601090007AE004F070C8900077
:1003540079E004F080C0900079E0FEA3E0FF24047B
:10036400F58274003EF583E064AA601090007AE0A0
:1003740004F070A2900079E004F0809A74052FF5DF
:100384008274003EF583E0600990007AE024020262
:100394000449900079E0FCA3E0FD2407F582740091
:1003A4003CF583E090007BF0A3E4F074082DF58223
:1003B40074003CF583E02407FFE433FE90007CE006
:1003C4002FF090007BE03EF0E0FEA3E0FFD3942604
:1003D400EE9400400890007AE0240380689000794D
:1003E400E0FCA3E0FDC39000F9E09DFD9000F8E07F
:1003F4009CFCD3EF9DEE9C5071900079E0FEA3E04D
:100404002403F974003EFA7B0190007CE024FFFD94
:1004140090007BE034FFFC1212A1AD0790007BE05A
:10042400FAA3E0FB900079E0FEA3E0FF2BFBEE3A99
:10043400FA74022BF58274003AF583E06D60119032
:10044400007AE02403F0900079E03400F002031A0B
:1004540012078290007BE0FEA3E0FF90007AE02F79
:10046400F0900079E03EF002031A900079E0FEA3D8
:10047400E0FFC39000F9E09FFD9000F8E09EFCF0DF
:10048400A3EDF0D39400EC9400402C74032FF97482
:10049400003EFA90009B7401F0A3EAF0A3E9F09007
:1004A40000F8E0FFA3E090009ECFF0A3EFF07B0103
:0704B4007A0079031204BC79
:0104BB00221E
:101558009000717401F0A37400F0A37423F090005C
:10156800747401F0A37400F0A37423F0E4900002F3
:08157800F090007774FFF022EF
:0616E500900022E0FF224C
:0E168D00E4900022F0FBFA7D037F04020F5A66
:0616EB00900001E0FF2267
:02162F00AD0705
:10163100E4FF900001F0FE12152CEFFB7A007D0310
:051641007F05020F5AB5
:0616F100900077E0FF22EB
:0A16C000E4FBFA7D037F0E020F5ACF
:1015FB004E00A80104020405020A010C010E01654C
:01160B0001DD
:0316F7000216DDFB
:10143000E4FD7F011213B7E4FD7F021213B79000A1
:101440008712026D0000000A7F05120BD8E4FD7FB1
:101450000A121334E4FD7F0C121334E4FD7F0E12E4
:0914600013347D017F6502133491
:1016460012169BAD077F0C121334EF640170037FF3
:0416560001227F00EE
:01165A00226D
:1016110012169BEF7004D2C48002C2C4AD077F0EC4
:0D162100121334EF640170037F01227F007B
:01162E002299
:0B12EB0090008EEBF0A3EAF0A3E9F006
:1012F600EF24F2601A2402702F90008EE0FBA3E028
:10130600FAA3E0F9A3E0FCA3E0FD121646801490D0
:10131600008EE0FBA3E0FAA3E0F9A3E0FCA3E0FD66
:0D132600121611900093EFF0900093E0FF7D
:011333002297
:0316FA007F072245
:0916D400900086EFF0A3EDF02276
:1013F5007B2270223A220069356E61786C6D32620B
:101405007862683134696700222C2276223A2200FC
:10141500312E302E3000222C226D223A0030007DF4
:0B1425000000000000000000000000BC
:04160C004100000099
:08152C00900095EEF0A3EFF032
:101534002440F974003EFA7B01ED1201CA90009632
:10154400E004F07006900095E004F0900095E0FE51
:03155400A3E0FF12
:011557002271
:090EEE00900086E0FF7E007BFF0E
:100EF700900093EBF0A3EAF0A3E9F0900091EEF0F5
:030F0700A3EFF065
:100F0A002440F974003EFA7B01C002C001A3E0F953
:100F1A00A3E0FAA3E090009BC9F0A3EAF0A3E9F0EA
:100F2A00900096E0FFA3E090009ECFF0A3EFF0D0F0
:100F3A0001D0021204BC900096E0FEA3E0FF9000EC
:0F0F4A0092E02FF0900091E03EF0E0FEA3E0FF78
:010F59002275
:1012A100900097EBF0A3EAF0A3E9F0A3ECF0A3ED33
:0112B100F04C
:1012B200E4A3F0FFFED390009BE09F90009AE09E93
:1012C2004021900097E0FBA3E475F001120214A9FB
:1012D200F0FA120184FD90009CE02DF00FBF000196
:0812E2000E80D290009CE0FF99
:0112EA0022E1
:10124D00900097EBF0A3EAF0A3E9F0A3ECF0A3ED87
:10125D00F0900097E0FBA3E0FAA3E04A4B6034A3C3
:10126D00E07002A3E0602C90009A74FFF5F012027A
:10127D001445F0601E900097E0FBA3E0FAA3E0F99F
:10128D00120184FF1216F7900098E475F001120117
:04129D00FE80D422D9
:080F5A00900095EAF0A3EBF012
:100F620090003A7455F0A374AAF0A3EDF0A3EFF049
:100F7200900095E0FCA3E0FDEC90003EF0EDA3F0C4
:100F8200900096E02407F0900095E03400F07B0199
:100F92007A00793AA3E024FFFD900095E034FFFC4B
:100FA2001212A1AE07900095E0FCA3E0FD2439F5F2
:100FB2008274003CF583EFF07B017A00793A0212E9
:010FC2004DE1
:1015A700E4FF900000E0700DFEFD12152C90000086
:1015B7007401F080077E007D0112152CEFFB7A0085
:0715C7007D03E4FF020F5A4F
:100A1300E4900086F078877C007D017BFF7A14796F
:100A230026FE7F0A12015E7BFF7A1379F5120D957C
:100A3300900096EEF0A3EFF07A1379F5120EEE9094
:100A43000086EFF07BFF7A1379FC120D95900096E8
:100A5300EEF0A3EFF07A1379FC120EEE900086EF1E
:100A6300F07BFF7A14790D120D95900096EEF0A3AA
:100A7300EFF0900086E0FF7E007BFF7A14790D1281
:100A83000EF7900086EFF07BFF7A147915120D951F
:100A9300900096EEF0A3EFF0900086E0FF7E007BDF
:100AA300FF7A147915120EF7900086EFF07BFF7A28
:100AB30014791B120D95900096EEF0A3EFF09000C1
:100AC30086E0FF7E007BFF7A14791B120EF79000FD
:100AD30086EFF07BFF7A147922120D95900096EE43
:100AE300F0A3EFF0900086E0FF7E007BFF7A14799D
:100AF30022120EF7900086EFF07BFF7A147924120E
:100B03000D95900096EEF0A3EFF0900086E0FF7E47
:100B1300007BFF7A147924120EF7900086EFF0FB26
:090B23007A007D037F01020F5AE4
:0A16CA00E4FBFA7D037F02020F5AD1
:0514D10090008DEFF01A
:1014D6001216FAE4FEEEC39F501D75F002EEA42428
:1014E600A8F582E5F03400F583E0FD90008DE0FC80
:0914F600ED6C60030E80DEAF0610
:0114FF0022CA
:0B000300900086EBF0A3EAF0A3E9F008
:10000E00120184900089F0FD90000112019D900074
:10001E008AF090000212019D90008BF0A3E4F09004
:10002E00000312019DFF90008CE02FF090008BE0FA
:10003E003400F0AF051214D175F002EFA424A9F527
:10004E0082E5F03400F583E0FF90008AE06F6003F4
:10005E007F0022900089E0FF900086E0FBA3E0FA8B
:10006E00A3E02404F9E43AFA90008BE0FDA3E090BB
:0A007E000091CDF0A3EDF01212EB9B
:010088002255
:0807820090007DEEF0A3EFF002
:10078A0090007DE0FEA3E02406F58274003EF58326
:10079A00E0FF12029E07BE0007C10107C40207C795
:1007AA000307E60407EB0507F20608B20808B50EC8
:1007BA00000008DA0215A7020A130216CA90007D81
:1007CA00E0FEA3E02409F58274003EF583E0900080
:1007DA0077F0E4FBFA7D037F03020F5A9000228030
:1007EA00039000017401F02290007DE0FCA3E0FD7B
:1007FA002407F58274003CF583E0FE74082DF58227
:10080A0074003CF583E0FDEDFF900084EEF0A3EF69
:10081A00F0E4900082F0A3F0900084E0FEA3E0FFF1
:10082A00C3900083E09F900082E09E40030208DAB2
:10083A00E0FEA3E0FF90007DE0FCA3E0FD2FFBECCF
:10084A003EFA740B2BF58274003AF583E090007F30
:10085A00F0A3E4F0740C2BF58274003AF583E0FF00
:10086A00900080E02FF090007FE03400F074092DB2
:10087A00F974003CFA7B01900082E0FEA3E029F9BA
:10088A00EA3EFA120003900081EFF0900080E02423
:10089A0004FF90007FE03400FE900083E02FF09088
:1008AA000082E03EF002082202143090007DE0FE51
:1008BA00A3E0FF2409F58274003EF583E0FD740A83
:1008CA002FF58274003EF583E0FEAF05FD1216D4C3
:0108DA0022FB
:10146900900074E0FBA3E0FAA3E0F9C003C002C056
:1014790001900071E0FBA3E0FAA3E0F9D082D083E8
:10148900D0E06B7008E965827003EA658360037FC9
:0514990001227F00228A
:100FC300900071E0FBA3E0FAA3E0F9C003C002C004
:100FD30001A3E0FBA3E0FAA3E0F9D082D083D0E041
:100FE3006B7008E965827003EA658360359000746D
:100FF300A3E0FAA3E0C390003A9582EA9583400EFA
:101003009000747401F0A37400F0A37423F09000B3
:1010130074E0FBA3E475F001120214A9F0FA1201C3
:0210230084FF48
:0110250022A8
:03000000020C7F70
:0C0C7F00787FE4F6D8FD758120020CC6D9
:10008E00E709F608DFFA8046E709F208DFFA803E54
:10009E0088828C83E709F0A3DFFA8032E309F60841
:1000AE00DFFA8078E309F208DFFA807088828C83A9
:1000BE00E309F0A3DFFA806489828A83E0A3F6085D
:1000CE00DFFA805889828A83E0A3F208DFFA804C37
:1000DE0080D280FA80C680D4806980F2803380100E
:1000EE0080A680EA809A80A880DA80E280CA803377
:1000FE0089828A83ECFAE493A3C8C582C8CCC583EF
:10010E00CCF0A3C8C582C8CCC583CCDFE9DEE780BE
:10011E000D89828A83E493A3F608DFF9ECFAA9F03D
:10012E00EDFB2289828A83ECFAE0A3C8C582C8CC93
:10013E00C583CCF0A3C8C582C8CCC583CCDFEADEAC
:10014E00E880DB89828A83E493A3F208DFF980CC0E
:10015E0088F0EF60010E4E60C388F0ED2402B40407
:10016E000050B9F582EB2402B4040050AF232345AE
:06017E0082239000DE73F5
:10018400BB010689828A83E0225002E722BBFE0279
:09019400E32289828A83E49322AC
:10019D00BB010CE58229F582E5833AF583E0225017
:1001AD0006E92582F8E622BBFE06E92582F8E22261
:0D01BD00E58229F582E5833AF583E493227B
:1001CA00BB010689828A83F0225002F722BBFE0114
:0201DA00F3220E
:1001DC00F8BB010DE58229F582E5833AF583E8F059
:1001EC00225006E92582C8F622BBFE05E92582C805
:0201FC00F222ED
:1001FE00C5F0F8A3E028F0C5F0F8E582158270028C
:06020E001583E038F02228
:10021400A3F8E0C5F025F0F0E5821582700215839D
:06022400E0C838F0E822FA
:10022A00EB9FF5F0EA9E42F0E99D42F0E89C45F02A
:01023A0022A1
:10023B00E8600FECC313FCED13FDEE13FEEF13FFA1
:03024B00D8F122C5
:10024E00E8600FEFC333FFEE33FEED33FDEC33FC0E
:03025E00D8F122B2
:0C026100ECF0A3EDF0A3EEF0A3EFF02210
:10026D00A8828583F0D083D0821202841202841278
:10027D000284120284E473E493A3C583C5F0C5839D
:10028D00C8C582C8F0A3C583C5F0C583C8C582C8DB
:01029D00223E
:10029E00D083D082F8E4937012740193700DA3A3EF
:1002AE0093F8740193F5828883E473740293686003
:0602BE00EFA3A3A380DF03
:100C8B00021026E493A3F8E493A34003F68001F249
:100C9B0008DFF48029E493A3F85407240CC8C3336A
:100CAB00C4540F4420C8834004F456800146F6DF39
:100CBB00E4800B01020408102040809015F0E47EC4
:100CCB00019360BCA3FF543F30E509541FFEE4932E
:100CDB00A360010ECF54C025E060A840B8E493A3F5
:100CEB00FAE493A3F8E493A3C8C582C8CAC583CA20
:100CFB00F0A3C8C582C8CAC583CADFE9DEE780BED8
:0116100000D9
:00000001FF
